:020000040000FA
:100000000C9462000C948A000C948A000C948A0070
:100010000C948A000C948A000C948A000C948A0038
:100020000C948A000C948A000C948A000C948A0028
:100030000C948A000C948A000C948A000C948A0018
:100040000C9443030C948A000C94B3030C948D031A
:100050000C948A000C948A000C948A000C948A00F8
:100060000C948A000C948A000000000024002700F1
:100070002A0000000000250028002B0000000000DE
:1000800023002600290004040404040404040202DA
:100090000202020203030303030301020408102007
:1000A0004080010204081020010204081020000012
:1000B0000008000201000003040700000000000027
:1000C0000000FD0511241FBECFEFD8E0DEBFCDBF7D
:1000D00011E0A0E0B1E0E2E7FEE002C005900D9281
:1000E000AE32B107D9F721E0AEE2B1E001C01D9216
:1000F000A53EB207E1F710E0C2E6D0E004C02197C8
:10010000FE010E943107C136D107C9F70E94E503FD
:100110000C9437070C940000833081F028F4813070
:1001200099F08230A9F008958730A9F08830C9F09D
:100130008430B1F4809180008F7D03C08091800075
:100140008F7780938000089584B58F7784BD08955C
:1001500084B58F7DFBCF8091B0008F778093B00006
:1001600008958091B0008F7DF9CFCF93DF93282F32
:1001700030E0F901E255FF4F8491F901E656FF4F57
:10018000D491F901EA57FF4FC491CC23A1F081111A
:100190000E948C00EC2FF0E0EE0FFF1FE458FF4FA1
:1001A000A591B491EC91ED2381E090E009F480E019
:1001B000DF91CF91089580E090E0FACF1F93CF9325
:1001C000DF93282F30E0F901E255FF4F8491F901C8
:1001D000E656FF4FD491F901EA57FF4FC491CC2363
:1001E000A9F0162F81110E948C00EC2FF0E0EE0F89
:1001F000FF1FEE58FF4FA591B4918FB7F894EC9183
:10020000111108C0D095DE23DC938FBFDF91CF9111
:100210001F910895DE2BF8CFCF93DF9390E0FC0180
:10022000E656FF4F24918A579F4FFC018491882303
:10023000D1F090E0880F991FFC01E859FF4FA5917C
:10024000B491FC01EE58FF4FC591D491623071F426
:100250009FB7F8943C91822F809583238C93E881FB
:100260002E2B28839FBFDF91CF9108958FB7F894ED
:10027000EC912E2B2C938FBFF6CF3FB7F894809143
:10028000440190914501A0914601B091470126B5E6
:10029000A89B05C02F3F19F00196A11DB11D3FBFBE
:1002A000BA2FA92F982F8827BC01CD01620F711D8D
:1002B000811D911D42E0660F771F881F991F4A9587
:1002C000D1F708958F929F92AF92BF92CF92DF9213
:1002D000EF92FF926B017C010E943D014B015C019A
:1002E000C114D104E104F104B9F00E943D01681980
:1002F00079098A099B09683E73408105910580F35D
:1003000021E0C21AD108E108F10888EE880E83E0E6
:10031000981EA11CB11CE4CFFF90EF90DF90CF900E
:10032000BF90AF909F908F900895AF92BF92CF9261
:10033000DF92EF92FF920F931F93CF93DF936C01A5
:100340007B018B01040F151FEB015E01AE18BF0886
:10035000C017D10759F06991D601ED91FC91019038
:10036000F081E02DC6010995892B79F7C501DF9150
:10037000CF911F910F91FF90EF90DF90CF90BF90A2
:10038000AF900895FC01538D448D252F30E0842FCC
:1003900090E0821B930B541710F0CF9608950197AD
:1003A0000895FC01918D828D981761F0A28DAE0F9A
:1003B000BF2FB11D5D968C91928D9F5F9F73928F21
:1003C00090E008958FEF9FEF0895FC01918D828D4D
:1003D000981731F0828DE80FF11D858D90E008951A
:1003E0008FEF9FEF0895FC01918D228D892F90E072
:1003F000805C9F4F821B91098F739927089588E431
:1004000091E00E94F30121E0892B09F420E0822F82
:10041000089580E090E0892B29F00E94FF0181116E
:100420000C9400000895FC01A48DA80FB92FB11DF4
:10043000A35ABF4F2C91848D90E001968F7399271A
:10044000848FA689B7892C93A089B1898C918370F8
:1004500080648C93938D848D981306C00288F389F1
:10046000E02D80818F7D80830895EF92FF920F931E
:100470001F93CF93DF93EC0181E0888F9B8D8C8D50
:1004800098131AC0E889F989808185FF15C09FB744
:10049000F894EE89FF896083E889F9898081837007
:1004A000806480839FBF81E090E0DF91CF911F91B6
:1004B0000F91FF90EF900895F62E0B8D10E00F5FD7
:1004C0001F4F0F731127E02E8C8D8E110CC00FB6AD
:1004D00007FCFACFE889F989808185FFF5CFCE0145
:1004E0000E941302F1CFEB8DEC0FFD2FF11DE35AAB
:1004F000FF4FF0829FB7F8940B8FEA89FB898081C8
:100500008062CFCFCF93DF93EC01888D8823B9F041
:10051000AA89BB89E889F9898C9185FD03C080810E
:1005200086FD0DC00FB607FCF7CF8C9185FFF2CF8B
:10053000808185FFEDCFCE010E941302E9CFDF91CC
:10054000CF910895FC0101900020E9F73197AF01A8
:10055000481B590BBC0188E491E00C9495018F92E3
:100560009F92AF92BF920F931F93CF93DF93CDB71C
:10057000DEB7A1970FB6F894DEBF0FBECDBF19A2AC
:10058000423008F44AE08E010F5D1F4F842E912CFB
:10059000B12CA12CA50194010E940007E62FB901FE
:1005A000CA01EA30F4F4E05DD801EE938D01232B0B
:1005B000242B252B79F790E080E0109719F0CD01DE
:1005C0000E94A202A1960FB6F894DEBF0FBECDBF67
:1005D000DF91CF911F910F91BF90AF909F908F901F
:1005E0000895E95CE1CFCF92DF92EF92FF92CF9333
:1005F000DF936B017C016DE288E491E00E9435029B
:10060000EC0166277727CB016C197D098E099F09BC
:100610004AE00E94AF028C0F9D1FDF91CF91FF90A7
:10062000EF90DF90CF900895CF93DF930E94A202C6
:10063000EC0188E191E00E94A2028C0F9D1FDF91E6
:10064000CF910895CF93DF9360E08BE00E94DE00AE
:10065000D0913E01C8E06D2F661F6627661F8CE0B3
:100660000E94DE00DD0F61E089E00E94DE0060E0B4
:1006700089E00E94DE00C15071F761E08BE0DF91FC
:10068000CF910C94DE001F920F920FB60F9211249F
:100690002F933F938F939F93AF93BF93809140018C
:1006A00090914101A0914201B091430130913F01ED
:1006B00023E0230F2D3758F50196A11DB11D20937E
:1006C0003F018093400190934101A0934201B09378
:1006D00043018091440190914501A0914601B09160
:1006E00047010196A11DB11D8093440190934501DE
:1006F000A0934601B0934701BF91AF919F918F9115
:100700003F912F910F900FBE0F901F90189526E8E4
:10071000230F0296A11DB11DD2CF1F920F920FB6CB
:100720000F9211242F933F934F935F936F937F9377
:100730008F939F93AF93BF93EF93FF9388E491E0E0
:100740000E941302FF91EF91BF91AF919F918F9102
:100750007F916F915F914F913F912F910F900FBEBD
:100760000F901F9018951F920F920FB60F921124A1
:100770002F938F939F93EF93FF93E0915801F09104
:1007800059018081E0915E01F0915F0182FD1BC003
:100790009081809161018F5F8F7320916201821738
:1007A00041F0E0916101F0E0E85BFE4F958F8093AE
:1007B0006101FF91EF919F918F912F910F900FBE4B
:1007C0000F901F9018958081F4CFCF93DF9300D0C6
:1007D0001F92CDB7DEB7789484B5826084BD84B5AE
:1007E000816084BD85B5826085BD85B5816085BD2C
:1007F00080916E00816080936E00109281008091E4
:10080000810082608093810080918100816080936B
:100810008100809180008160809380008091B10090
:1008200084608093B1008091B00081608093B000BB
:1008300080917A00846080937A0080917A0082604F
:1008400080937A0080917A00816080937A00809111
:100850007A00806880937A001092C100E09158017C
:10086000F091590182E08083E0915401F0915501AB
:100870001082E0915601F09157018FEC8083109225
:100880006001E0915C01F0915D0186E08083E09180
:100890005A01F0915B01808180618083E0915A016F
:1008A000F0915B01808188608083E0915A01F09132
:1008B0005B01808180688083E0915A01F0915B0147
:1008C00080818F7D808361E08BE00E940C0161E07C
:1008D0008CE00E940C0161E089E00E940C0162E062
:1008E00086E00E940C0162E088E00E940C0162E058
:1008F00084E00E940C0161E082E00E940C0161E052
:100900008DE00E940C0181E480937C0080917A004C
:10091000806480937A0080917A0086FDFCCF60919C
:10092000780070917900072E000C880B990B6115E7
:1009300071058105910511F00E94C506412C512CCD
:100940003201439422242394312C30E0832E30E072
:10095000932E10923E0186E3A82E81E0B82E8501E9
:100960000E94760628E030E040E050E00E94CE068B
:10097000F801619371938F0197FF0CC10E94F302FC
:1009800088E191E00E94A2028EE391E08017910736
:1009900039F7E6E3F1E0FB83EA83EA81FB816191C9
:1009A0007191FB83EA83072E000C880B990B97FF4C
:1009B000F5C00E94F30288E191E00E94A202EA8160
:1009C000FB8132978081918180933401909335012E
:1009D0007301620104C0CC0CDD1CEE1CFF1C8A9567
:1009E000D2F7F0913E01F9838F2F8C2980933E013D
:1009F0000E94220364EF71E080E090E00E946201B7
:100A0000C0948981C822C0923E010E94220364EFF3
:100A100071E080E090E00E946201EA81FB81E017D2
:100A2000F10709F0BACF88E191E00E94A20210928A
:100A3000330110923201F501819191915F01909300
:100A400031018093300130920101209200018091A8
:100A5000000190910101892B09F4B7C0D301C201B3
:100A60000090320104C0880F991FAA1FBB1F0A946F
:100A7000D2F720913E01822B80933E010E942203F7
:100A800086E00E94B500892B59F58BE191E00E9428
:100A900014036AEF70E080E090E00E946201009130
:100AA000320110913301D301C201002E04C0880F1E
:100AB000991FAA1FBB1F0A94D2F7982F9095809177
:100AC0003E01892380933E010E94220301501109B7
:100AD000109333010093320110932F0100932E01E4
:100AE00084E00E94B500892B39F56AEF70E080E060
:100AF00090E00E9462010091320110913301D30114
:100B0000C201002E04C0880F991FAA1FBB1F0A94A0
:100B1000D2F7982F909580913E01892380933E01D2
:100B20000E9422030F5F1F4F109333010093320185
:100B300010932F0100932E0188E00E94B500892BAD
:100B400009F085CF6AEF70E080E090E00E946201DA
:100B500020912E0130912F0180913001909131012F
:100B600028173907F9F480E291E00E94140361E04C
:100B700082E00E94DE006CEB72E080E090E00E9478
:100B8000620160E082E00E94DE001092010110929A
:100B900000015DCF4AE00E94AF02F2CE4AE00E941F
:100BA000AF0209CF88E291E00E94140361E08DE07A
:100BB0000E94DE006CEB72E080E090E00E94620137
:100BC00060E08DE00E94DE0042CF8A819B81A81602
:100BD000B90609F030CF68EE73E080E090E00E9443
:100BE00062018114910409F4B4CE0E94FF018823AC
:100BF00009F4AFCE0E940000ACCEE8E4F1E013822D
:100C0000128288EE93E0A0E0B0E084839583A6830F
:100C1000B7838AE091E09183808385EC90E09587AB
:100C2000848784EC90E09787868780EC90E0918BB6
:100C3000808B81EC90E0938B828B82EC90E0958BA3
:100C4000848B86EC90E0978B868B118E128E138EA0
:100C5000148E08958F929F92AF92BF92CF92DF929F
:100C6000EF92FF92CF93DF93EC01688179818A81C3
:100C70009B81611571058105910521F464E279ED8F
:100C80008BE597E02DE133EF41E050E00E94CE0686
:100C900049015A019B01AC01A7EAB1E40E94ED06AB
:100CA0006B017C01ACEEB4EFA50194010E94FB0640
:100CB000C60ED71EE81EF91EF7FE06C081E0C81A50
:100CC000D108E10880E8F80AC882D982EA82FB826A
:100CD000C701B6019F77DF91CF91FF90EF90DF9032
:100CE000CF90BF90AF909F908F9008958F929F92DA
:100CF000AF92BF92CF92DF92EF92FF92609102018A
:100D000070910301809104019091050161157105B5
:100D10008105910521F464E279ED8BE597E02DE101
:100D200033EF41E050E00E94CE0649015A019B0199
:100D3000AC01A7EAB1E40E94ED066B017C01ACEEC8
:100D4000B4EFA50194010E94FB06C60ED71EE81E53
:100D5000F91EF7FE06C081E0C81AD108E10880E854
:100D6000F80AC0920201D0920301E0920401F092CD
:100D70000501C701B6019F77FF90EF90DF90CF90FC
:100D8000BF90AF909F908F900895609302017093F1
:100D9000030180930401909305010895052E97FBAC
:100DA0001EF400940E94E50657FD07D00E9400073C
:100DB00007FC03D04EF40C94E50650954095309511
:100DC00021953F4F4F4F5F4F0895909580957095B7
:100DD00061957F4F8F4F9F4F08950E942207A59FD7
:100DE000900DB49F900DA49F800D911D1124089526
:100DF000B7FF0C94ED060E94ED06821B930B08953D
:100E0000A1E21A2EAA1BBB1BFD010DC0AA1FBB1F0E
:100E1000EE1FFF1FA217B307E407F50720F0A21B80
:100E2000B30BE40BF50B661F771F881F991F1A94ED
:100E300069F760957095809590959B01AC01BD0117
:100E4000CF010895A29FB001B39FC001A39F700D71
:100E5000811D1124911DB29F700D811D1124911DC2
:100E60000895EE0FFF1F0590F491E02D0994F8947A
:100E7000FFCF0100010000000000000035029501D5
:100E8000C2018202F301D101E5010D0A00646F6E17
:100E90006500636F72726563740077726F6E6700CE
:107E0000112484B714BE81FFF0D085E080938100F7
:107E100082E08093C00088E18093C10086E0809377
:107E2000C20080E18093C4008EE0C9D0259A86E02C
:107E300020E33CEF91E0309385002093840096BBD3
:107E4000B09BFECF1D9AA8958150A9F7CC24DD24C4
:107E500088248394B5E0AB2EA1E19A2EF3E0BF2EE7
:107E6000A2D0813461F49FD0082FAFD0023811F036
:107E7000013811F484E001C083E08DD089C08234E0
:107E800011F484E103C0853419F485E0A6D080C0E4
:107E9000853579F488D0E82EFF2485D0082F10E0AE
:107EA000102F00270E291F29000F111F8ED06801E7
:107EB0006FC0863521F484E090D080E0DECF843638
:107EC00009F040C070D06FD0082F6DD080E0C81688
:107ED00080E7D80618F4F601B7BEE895C0E0D1E017
:107EE00062D089930C17E1F7F0E0CF16F0E7DF06D8
:107EF00018F0F601B7BEE89568D007B600FCFDCFD4
:107F0000A601A0E0B1E02C9130E011968C91119780
:107F100090E0982F8827822B932B1296FA010C0160
:107F200087BEE89511244E5F5F4FF1E0A038BF0790
:107F300051F7F601A7BEE89507B600FCFDCF97BE46
:107F4000E89526C08437B1F42ED02DD0F82E2BD052
:107F50003CD0F601EF2C8F010F5F1F4F84911BD097
:107F6000EA94F801C1F70894C11CD11CFA94CF0C13
:107F7000D11C0EC0853739F428D08EE10CD085E9AC
:107F80000AD08FE07ACF813511F488E018D01DD067
:107F900080E101D065CF982F8091C00085FFFCCF94
:107FA0009093C60008958091C00087FFFCCF809118
:107FB000C00084FD01C0A8958091C6000895E0E648
:107FC000F0E098E1908380830895EDDF803219F02E
:107FD00088E0F5DFFFCF84E1DECF1F93182FE3DFCA
:107FE0001150E9F7F2DF1F91089580E0E8DFEE27F6
:047FF000FF270994CA
:027FFE00040479
:00000001FF
